{
  "_format": "hh-sol-artifact-1",
  "contractName": "SampleNFT",
  "sourceName": "contracts/SampleNFT.sol",
  "abi": [
    {
      "inputs": [],
      "stateMutability": "nonpayable",
      "type": "constructor"
    },
    {
      "anonymous": false,
      "inputs": [
        {
          "indexed": true,
          "internalType": "address",
          "name": "owner",
          "type": "address"
        },
        {
          "indexed": true,
          "internalType": "address",
          "name": "approved",
          "type": "address"
        },
        {
          "indexed": true,
          "internalType": "uint256",
          "name": "tokenId",
          "type": "uint256"
        }
      ],
      "name": "Approval",
      "type": "event"
    },
    {
      "anonymous": false,
      "inputs": [
        {
          "indexed": true,
          "internalType": "address",
          "name": "owner",
          "type": "address"
        },
        {
          "indexed": true,
          "internalType": "address",
          "name": "operator",
          "type": "address"
        },
        {
          "indexed": false,
          "internalType": "bool",
          "name": "approved",
          "type": "bool"
        }
      ],
      "name": "ApprovalForAll",
      "type": "event"
    },
    {
      "anonymous": false,
      "inputs": [
        {
          "indexed": true,
          "internalType": "address",
          "name": "previousOwner",
          "type": "address"
        },
        {
          "indexed": true,
          "internalType": "address",
          "name": "newOwner",
          "type": "address"
        }
      ],
      "name": "OwnershipTransferred",
      "type": "event"
    },
    {
      "anonymous": false,
      "inputs": [
        {
          "indexed": true,
          "internalType": "address",
          "name": "from",
          "type": "address"
        },
        {
          "indexed": true,
          "internalType": "address",
          "name": "to",
          "type": "address"
        },
        {
          "indexed": true,
          "internalType": "uint256",
          "name": "tokenId",
          "type": "uint256"
        }
      ],
      "name": "Transfer",
      "type": "event"
    },
    {
      "inputs": [
        {
          "internalType": "address",
          "name": "to",
          "type": "address"
        },
        {
          "internalType": "uint256",
          "name": "tokenId",
          "type": "uint256"
        }
      ],
      "name": "approve",
      "outputs": [],
      "stateMutability": "nonpayable",
      "type": "function"
    },
    {
      "inputs": [
        {
          "internalType": "address",
          "name": "owner",
          "type": "address"
        }
      ],
      "name": "balanceOf",
      "outputs": [
        {
          "internalType": "uint256",
          "name": "",
          "type": "uint256"
        }
      ],
      "stateMutability": "view",
      "type": "function"
    },
    {
      "inputs": [
        {
          "internalType": "address",
          "name": "",
          "type": "address"
        }
      ],
      "name": "claimed",
      "outputs": [
        {
          "internalType": "bool",
          "name": "",
          "type": "bool"
        }
      ],
      "stateMutability": "view",
      "type": "function"
    },
    {
      "inputs": [],
      "name": "cost",
      "outputs": [
        {
          "internalType": "uint256",
          "name": "",
          "type": "uint256"
        }
      ],
      "stateMutability": "view",
      "type": "function"
    },
    {
      "inputs": [
        {
          "internalType": "uint256",
          "name": "tokenId",
          "type": "uint256"
        }
      ],
      "name": "getApproved",
      "outputs": [
        {
          "internalType": "address",
          "name": "",
          "type": "address"
        }
      ],
      "stateMutability": "view",
      "type": "function"
    },
    {
      "inputs": [],
      "name": "hiddenMetadataUri",
      "outputs": [
        {
          "internalType": "string",
          "name": "",
          "type": "string"
        }
      ],
      "stateMutability": "view",
      "type": "function"
    },
    {
      "inputs": [
        {
          "internalType": "address",
          "name": "owner",
          "type": "address"
        },
        {
          "internalType": "address",
          "name": "operator",
          "type": "address"
        }
      ],
      "name": "isApprovedForAll",
      "outputs": [
        {
          "internalType": "bool",
          "name": "",
          "type": "bool"
        }
      ],
      "stateMutability": "view",
      "type": "function"
    },
    {
      "inputs": [],
      "name": "maxMintAmountPerTx",
      "outputs": [
        {
          "internalType": "uint256",
          "name": "",
          "type": "uint256"
        }
      ],
      "stateMutability": "view",
      "type": "function"
    },
    {
      "inputs": [],
      "name": "maxSupply",
      "outputs": [
        {
          "internalType": "uint256",
          "name": "",
          "type": "uint256"
        }
      ],
      "stateMutability": "view",
      "type": "function"
    },
    {
      "inputs": [
        {
          "internalType": "uint256",
          "name": "_mintAmount",
          "type": "uint256"
        }
      ],
      "name": "mint",
      "outputs": [],
      "stateMutability": "payable",
      "type": "function"
    },
    {
      "inputs": [
        {
          "internalType": "uint256",
          "name": "_mintAmount",
          "type": "uint256"
        },
        {
          "internalType": "address",
          "name": "_receiver",
          "type": "address"
        }
      ],
      "name": "mintForAddress",
      "outputs": [],
      "stateMutability": "nonpayable",
      "type": "function"
    },
    {
      "inputs": [
        {
          "internalType": "bytes32[]",
          "name": "merkleProof",
          "type": "bytes32[]"
        },
        {
          "internalType": "uint256",
          "name": "_mintAmount",
          "type": "uint256"
        }
      ],
      "name": "mintWhitelist",
      "outputs": [],
      "stateMutability": "payable",
      "type": "function"
    },
    {
      "inputs": [],
      "name": "name",
      "outputs": [
        {
          "internalType": "string",
          "name": "",
          "type": "string"
        }
      ],
      "stateMutability": "view",
      "type": "function"
    },
    {
      "inputs": [],
      "name": "owner",
      "outputs": [
        {
          "internalType": "address",
          "name": "",
          "type": "address"
        }
      ],
      "stateMutability": "view",
      "type": "function"
    },
    {
      "inputs": [
        {
          "internalType": "uint256",
          "name": "tokenId",
          "type": "uint256"
        }
      ],
      "name": "ownerOf",
      "outputs": [
        {
          "internalType": "address",
          "name": "",
          "type": "address"
        }
      ],
      "stateMutability": "view",
      "type": "function"
    },
    {
      "inputs": [],
      "name": "paused",
      "outputs": [
        {
          "internalType": "bool",
          "name": "",
          "type": "bool"
        }
      ],
      "stateMutability": "view",
      "type": "function"
    },
    {
      "inputs": [],
      "name": "presale",
      "outputs": [
        {
          "internalType": "bool",
          "name": "",
          "type": "bool"
        }
      ],
      "stateMutability": "view",
      "type": "function"
    },
    {
      "inputs": [],
      "name": "renounceOwnership",
      "outputs": [],
      "stateMutability": "nonpayable",
      "type": "function"
    },
    {
      "inputs": [],
      "name": "revealed",
      "outputs": [
        {
          "internalType": "bool",
          "name": "",
          "type": "bool"
        }
      ],
      "stateMutability": "view",
      "type": "function"
    },
    {
      "inputs": [
        {
          "internalType": "address",
          "name": "from",
          "type": "address"
        },
        {
          "internalType": "address",
          "name": "to",
          "type": "address"
        },
        {
          "internalType": "uint256",
          "name": "tokenId",
          "type": "uint256"
        }
      ],
      "name": "safeTransferFrom",
      "outputs": [],
      "stateMutability": "nonpayable",
      "type": "function"
    },
    {
      "inputs": [
        {
          "internalType": "address",
          "name": "from",
          "type": "address"
        },
        {
          "internalType": "address",
          "name": "to",
          "type": "address"
        },
        {
          "internalType": "uint256",
          "name": "tokenId",
          "type": "uint256"
        },
        {
          "internalType": "bytes",
          "name": "_data",
          "type": "bytes"
        }
      ],
      "name": "safeTransferFrom",
      "outputs": [],
      "stateMutability": "nonpayable",
      "type": "function"
    },
    {
      "inputs": [
        {
          "internalType": "address",
          "name": "operator",
          "type": "address"
        },
        {
          "internalType": "bool",
          "name": "approved",
          "type": "bool"
        }
      ],
      "name": "setApprovalForAll",
      "outputs": [],
      "stateMutability": "nonpayable",
      "type": "function"
    },
    {
      "inputs": [
        {
          "internalType": "uint256",
          "name": "_cost",
          "type": "uint256"
        }
      ],
      "name": "setCost",
      "outputs": [],
      "stateMutability": "nonpayable",
      "type": "function"
    },
    {
      "inputs": [
        {
          "internalType": "string",
          "name": "_hiddenMetadataUri",
          "type": "string"
        }
      ],
      "name": "setHiddenMetadataUri",
      "outputs": [],
      "stateMutability": "nonpayable",
      "type": "function"
    },
    {
      "inputs": [
        {
          "internalType": "uint256",
          "name": "_maxMintAmountPerTx",
          "type": "uint256"
        }
      ],
      "name": "setMaxMintAmountPerTx",
      "outputs": [],
      "stateMutability": "nonpayable",
      "type": "function"
    },
    {
      "inputs": [
        {
          "internalType": "bool",
          "name": "_state",
          "type": "bool"
        }
      ],
      "name": "setPaused",
      "outputs": [],
      "stateMutability": "nonpayable",
      "type": "function"
    },
    {
      "inputs": [
        {
          "internalType": "bool",
          "name": "_state",
          "type": "bool"
        }
      ],
      "name": "setPresale",
      "outputs": [],
      "stateMutability": "nonpayable",
      "type": "function"
    },
    {
      "inputs": [
        {
          "internalType": "bool",
          "name": "_state",
          "type": "bool"
        }
      ],
      "name": "setRevealed",
      "outputs": [],
      "stateMutability": "nonpayable",
      "type": "function"
    },
    {
      "inputs": [
        {
          "internalType": "string",
          "name": "_uriPrefix",
          "type": "string"
        }
      ],
      "name": "setUriPrefix",
      "outputs": [],
      "stateMutability": "nonpayable",
      "type": "function"
    },
    {
      "inputs": [
        {
          "internalType": "string",
          "name": "_uriSuffix",
          "type": "string"
        }
      ],
      "name": "setUriSuffix",
      "outputs": [],
      "stateMutability": "nonpayable",
      "type": "function"
    },
    {
      "inputs": [
        {
          "internalType": "bytes32",
          "name": "merkleRoot",
          "type": "bytes32"
        }
      ],
      "name": "setWhitelistMerkleRoot",
      "outputs": [],
      "stateMutability": "nonpayable",
      "type": "function"
    },
    {
      "inputs": [
        {
          "internalType": "bytes4",
          "name": "interfaceId",
          "type": "bytes4"
        }
      ],
      "name": "supportsInterface",
      "outputs": [
        {
          "internalType": "bool",
          "name": "",
          "type": "bool"
        }
      ],
      "stateMutability": "view",
      "type": "function"
    },
    {
      "inputs": [],
      "name": "symbol",
      "outputs": [
        {
          "internalType": "string",
          "name": "",
          "type": "string"
        }
      ],
      "stateMutability": "view",
      "type": "function"
    },
    {
      "inputs": [
        {
          "internalType": "uint256",
          "name": "_tokenId",
          "type": "uint256"
        }
      ],
      "name": "tokenURI",
      "outputs": [
        {
          "internalType": "string",
          "name": "",
          "type": "string"
        }
      ],
      "stateMutability": "view",
      "type": "function"
    },
    {
      "inputs": [
        {
          "internalType": "address",
          "name": "from",
          "type": "address"
        },
        {
          "internalType": "address",
          "name": "to",
          "type": "address"
        },
        {
          "internalType": "uint256",
          "name": "tokenId",
          "type": "uint256"
        }
      ],
      "name": "transferFrom",
      "outputs": [],
      "stateMutability": "nonpayable",
      "type": "function"
    },
    {
      "inputs": [
        {
          "internalType": "address",
          "name": "newOwner",
          "type": "address"
        }
      ],
      "name": "transferOwnership",
      "outputs": [],
      "stateMutability": "nonpayable",
      "type": "function"
    },
    {
      "inputs": [],
      "name": "uriPrefix",
      "outputs": [
        {
          "internalType": "string",
          "name": "",
          "type": "string"
        }
      ],
      "stateMutability": "view",
      "type": "function"
    },
    {
      "inputs": [],
      "name": "uriSuffix",
      "outputs": [
        {
          "internalType": "string",
          "name": "",
          "type": "string"
        }
      ],
      "stateMutability": "view",
      "type": "function"
    },
    {
      "inputs": [
        {
          "internalType": "address",
          "name": "_owner",
          "type": "address"
        }
      ],
      "name": "walletOfOwner",
      "outputs": [
        {
          "internalType": "uint256[]",
          "name": "",
          "type": "uint256[]"
        }
      ],
      "stateMutability": "view",
      "type": "function"
    },
    {
      "inputs": [],
      "name": "whitelistMerkleRoot",
      "outputs": [
        {
          "internalType": "bytes32",
          "name": "",
          "type": "bytes32"
        }
      ],
      "stateMutability": "view",
      "type": "function"
    },
    {
      "inputs": [],
      "name": "withdraw",
      "outputs": [],
      "stateMutability": "nonpayable",
      "type": "function"
    }
  ],
  "bytecode": "0x608060405260405180602001604052806000815250600890805190602001906200002b92919062000382565b506040518060400160405280600581526020017f2e6a736f6e000000000000000000000000000000000000000000000000000000815250600990805190602001906200007992919062000382565b50667c585087238000600b55612710600c55600a600d556001600f60006101000a81548160ff0219169083151502179055506000600f60016101000a81548160ff0219169083151502179055506000600f60026101000a81548160ff021916908315150217905550348015620000ee57600080fd5b506040518060400160405280600e81526020017f53746f6e6b792043616e646c65730000000000000000000000000000000000008152506040518060400160405280600481526020017f535443430000000000000000000000000000000000000000000000000000000081525081600090805190602001906200017392919062000382565b5080600190805190602001906200018c92919062000382565b505050620001af620001a3620001df60201b60201c565b620001e760201b60201c565b620001d960405180608001604052806041815260200162004fc160419139620002ad60201b60201c565b6200051a565b600033905090565b6000600660009054906101000a900473ffffffffffffffffffffffffffffffffffffffff16905081600660006101000a81548173ffffffffffffffffffffffffffffffffffffffff021916908373ffffffffffffffffffffffffffffffffffffffff1602179055508173ffffffffffffffffffffffffffffffffffffffff168173ffffffffffffffffffffffffffffffffffffffff167f8be0079c531659141344cd1fd0a4f28419497f9722a3daafe3b4186f6b6457e060405160405180910390a35050565b620002bd620001df60201b60201c565b73ffffffffffffffffffffffffffffffffffffffff16620002e36200035860201b60201c565b73ffffffffffffffffffffffffffffffffffffffff16146200033c576040517f08c379a0000000000000000000000000000000000000000000000000000000008152600401620003339062000459565b60405180910390fd5b80600a90805190602001906200035492919062000382565b5050565b6000600660009054906101000a900473ffffffffffffffffffffffffffffffffffffffff16905090565b82805462000390906200048c565b90600052602060002090601f016020900481019282620003b4576000855562000400565b82601f10620003cf57805160ff191683800117855562000400565b8280016001018555821562000400579182015b82811115620003ff578251825591602001919060010190620003e2565b5b5090506200040f919062000413565b5090565b5b808211156200042e57600081600090555060010162000414565b5090565b6000620004416020836200047b565b91506200044e82620004f1565b602082019050919050565b60006020820190508181036000830152620004748162000432565b9050919050565b600082825260208201905092915050565b60006002820490506001821680620004a557607f821691505b60208210811415620004bc57620004bb620004c2565b5b50919050565b7f4e487b7100000000000000000000000000000000000000000000000000000000600052602260045260246000fd5b7f4f776e61626c653a2063616c6c6572206973206e6f7420746865206f776e6572600082015250565b614a97806200052a6000396000f3fe6080604052600436106102465760003560e01c80637ec4a65911610139578063b88d4fde116100b6578063d5abeb011161007a578063d5abeb011461084a578063e0a8085314610875578063e985e9c51461089e578063efbd73f4146108db578063f2fde38b14610904578063fdea8e0b1461092d57610246565b8063b88d4fde14610755578063bd32fb661461077e578063c54e73e3146107a7578063c87b56dd146107d0578063c884ef831461080d57610246565b8063a22cb465116100fd578063a22cb46514610691578063a45ba8e7146106ba578063a6d612f9146106e5578063aa98e0c614610701578063b071401b1461072c57610246565b80637ec4a659146105cb5780638da5cb5b146105f457806394354fd01461061f57806395d89b411461064a578063a0712d681461067557610246565b8063438b6300116101c75780635c975abb1161018b5780635c975abb146104e457806362b99ad41461050f5780636352211e1461053a57806370a0823114610577578063715018a6146105b457610246565b8063438b6300146103ff57806344a0d68a1461043c5780634fdd43cb14610465578063518302271461048e5780635503a0e8146104b957610246565b806316ba10e01161020e57806316ba10e01461034457806316c38b3c1461036d57806323b872dd146103965780633ccfd60b146103bf57806342842e0e146103d657610246565b806301ffc9a71461024b57806306fdde0314610288578063081812fc146102b3578063095ea7b3146102f057806313faede614610319575b600080fd5b34801561025757600080fd5b50610272600480360381019061026d9190613452565b610958565b60405161027f9190613bd1565b60405180910390f35b34801561029457600080fd5b5061029d610a3a565b6040516102aa9190613c07565b60405180910390f35b3480156102bf57600080fd5b506102da60048036038101906102d591906134f5565b610acc565b6040516102e79190613b48565b60405180910390f35b3480156102fc57600080fd5b5061031760048036038101906103129190613358565b610b51565b005b34801561032557600080fd5b5061032e610c69565b60405161033b9190613f09565b60405180910390f35b34801561035057600080fd5b5061036b600480360381019061036691906134ac565b610c6f565b005b34801561037957600080fd5b50610394600480360381019061038f91906133f8565b610d05565b005b3480156103a257600080fd5b506103bd60048036038101906103b89190613242565b610d9e565b005b3480156103cb57600080fd5b506103d4610dfe565b005b3480156103e257600080fd5b506103fd60048036038101906103f89190613242565b610efa565b005b34801561040b57600080fd5b50610426600480360381019061042191906131d5565b610f1a565b6040516104339190613baf565b60405180910390f35b34801561044857600080fd5b50610463600480360381019061045e91906134f5565b611025565b005b34801561047157600080fd5b5061048c600480360381019061048791906134ac565b6110ab565b005b34801561049a57600080fd5b506104a3611141565b6040516104b09190613bd1565b60405180910390f35b3480156104c557600080fd5b506104ce611154565b6040516104db9190613c07565b60405180910390f35b3480156104f057600080fd5b506104f96111e2565b6040516105069190613bd1565b60405180910390f35b34801561051b57600080fd5b506105246111f5565b6040516105319190613c07565b60405180910390f35b34801561054657600080fd5b50610561600480360381019061055c91906134f5565b611283565b60405161056e9190613b48565b60405180910390f35b34801561058357600080fd5b5061059e600480360381019061059991906131d5565b611335565b6040516105ab9190613f09565b60405180910390f35b3480156105c057600080fd5b506105c96113ed565b005b3480156105d757600080fd5b506105f260048036038101906105ed91906134ac565b611475565b005b34801561060057600080fd5b5061060961150b565b6040516106169190613b48565b60405180910390f35b34801561062b57600080fd5b50610634611535565b6040516106419190613f09565b60405180910390f35b34801561065657600080fd5b5061065f61153b565b60405161066c9190613c07565b60405180910390f35b61068f600480360381019061068a91906134f5565b6115cd565b005b34801561069d57600080fd5b506106b860048036038101906106b39190613318565b61171c565b005b3480156106c657600080fd5b506106cf611732565b6040516106dc9190613c07565b60405180910390f35b6106ff60048036038101906106fa9190613398565b6117c0565b005b34801561070d57600080fd5b50610716611a0d565b6040516107239190613bec565b60405180910390f35b34801561073857600080fd5b50610753600480360381019061074e91906134f5565b611a13565b005b34801561076157600080fd5b5061077c60048036038101906107779190613295565b611a99565b005b34801561078a57600080fd5b506107a560048036038101906107a09190613425565b611afb565b005b3480156107b357600080fd5b506107ce60048036038101906107c991906133f8565b611b81565b005b3480156107dc57600080fd5b506107f760048036038101906107f291906134f5565b611c1a565b6040516108049190613c07565b60405180910390f35b34801561081957600080fd5b50610834600480360381019061082f91906131d5565b611d73565b6040516108419190613bd1565b60405180910390f35b34801561085657600080fd5b5061085f611d93565b60405161086c9190613f09565b60405180910390f35b34801561088157600080fd5b5061089c600480360381019061089791906133f8565b611d99565b005b3480156108aa57600080fd5b506108c560048036038101906108c09190613202565b611e32565b6040516108d29190613bd1565b60405180910390f35b3480156108e757600080fd5b5061090260048036038101906108fd9190613522565b611ec6565b005b34801561091057600080fd5b5061092b600480360381019061092691906131d5565b611ffc565b005b34801561093957600080fd5b506109426120f4565b60405161094f9190613bd1565b60405180910390f35b60007f80ac58cd000000000000000000000000000000000000000000000000000000007bffffffffffffffffffffffffffffffffffffffffffffffffffffffff1916827bffffffffffffffffffffffffffffffffffffffffffffffffffffffff19161480610a2357507f5b5e139f000000000000000000000000000000000000000000000000000000007bffffffffffffffffffffffffffffffffffffffffffffffffffffffff1916827bffffffffffffffffffffffffffffffffffffffffffffffffffffffff1916145b80610a335750610a3282612107565b5b9050919050565b606060008054610a499061421c565b80601f0160208091040260200160405190810160405280929190818152602001828054610a759061421c565b8015610ac25780601f10610a9757610100808354040283529160200191610ac2565b820191906000526020600020905b815481529060010190602001808311610aa557829003601f168201915b5050505050905090565b6000610ad782612171565b610b16576040517f08c379a0000000000000000000000000000000000000000000000000000000008152600401610b0d90613de9565b60405180910390fd5b6004600083815260200190815260200160002060009054906101000a900473ffffffffffffffffffffffffffffffffffffffff169050919050565b6000610b5c82611283565b90508073ffffffffffffffffffffffffffffffffffffffff168373ffffffffffffffffffffffffffffffffffffffff161415610bcd576040517f08c379a0000000000000000000000000000000000000000000000000000000008152600401610bc490613e89565b60405180910390fd5b8073ffffffffffffffffffffffffffffffffffffffff16610bec6121dd565b73ffffffffffffffffffffffffffffffffffffffff161480610c1b5750610c1a81610c156121dd565b611e32565b5b610c5a576040517f08c379a0000000000000000000000000000000000000000000000000000000008152600401610c5190613d49565b60405180910390fd5b610c6483836121e5565b505050565b600b5481565b610c776121dd565b73ffffffffffffffffffffffffffffffffffffffff16610c9561150b565b73ffffffffffffffffffffffffffffffffffffffff1614610ceb576040517f08c379a0000000000000000000000000000000000000000000000000000000008152600401610ce290613e09565b60405180910390fd5b8060099080519060200190610d01929190612f7e565b5050565b610d0d6121dd565b73ffffffffffffffffffffffffffffffffffffffff16610d2b61150b565b73ffffffffffffffffffffffffffffffffffffffff1614610d81576040517f08c379a0000000000000000000000000000000000000000000000000000000008152600401610d7890613e09565b60405180910390fd5b80600f60006101000a81548160ff02191690831515021790555050565b610daf610da96121dd565b8261229e565b610dee576040517f08c379a0000000000000000000000000000000000000000000000000000000008152600401610de590613ec9565b60405180910390fd5b610df983838361237c565b505050565b610e066121dd565b73ffffffffffffffffffffffffffffffffffffffff16610e2461150b565b73ffffffffffffffffffffffffffffffffffffffff1614610e7a576040517f08c379a0000000000000000000000000000000000000000000000000000000008152600401610e7190613e09565b60405180910390fd5b6000610e8461150b565b73ffffffffffffffffffffffffffffffffffffffff1647604051610ea790613b33565b60006040518083038185875af1925050503d8060008114610ee4576040519150601f19603f3d011682016040523d82523d6000602084013e610ee9565b606091505b5050905080610ef757600080fd5b50565b610f1583838360405180602001604052806000815250611a99565b505050565b60606000610f2783611335565b905060008167ffffffffffffffff811115610f4557610f446143e3565b5b604051908082528060200260200182016040528015610f735781602001602082028036833780820191505090505b50905060006001905060005b8381108015610f905750600c548211155b15611019576000610fa083611283565b90508673ffffffffffffffffffffffffffffffffffffffff168173ffffffffffffffffffffffffffffffffffffffff1614156110055782848381518110610fea57610fe96143b4565b5b60200260200101818152505081806110019061427f565b9250505b82806110109061427f565b93505050610f7f565b82945050505050919050565b61102d6121dd565b73ffffffffffffffffffffffffffffffffffffffff1661104b61150b565b73ffffffffffffffffffffffffffffffffffffffff16146110a1576040517f08c379a000000000000000000000000000000000000000000000000000000000815260040161109890613e09565b60405180910390fd5b80600b8190555050565b6110b36121dd565b73ffffffffffffffffffffffffffffffffffffffff166110d161150b565b73ffffffffffffffffffffffffffffffffffffffff1614611127576040517f08c379a000000000000000000000000000000000000000000000000000000000815260040161111e90613e09565b60405180910390fd5b80600a908051906020019061113d929190612f7e565b5050565b600f60029054906101000a900460ff1681565b600980546111619061421c565b80601f016020809104026020016040519081016040528092919081815260200182805461118d9061421c565b80156111da5780601f106111af576101008083540402835291602001916111da565b820191906000526020600020905b8154815290600101906020018083116111bd57829003601f168201915b505050505081565b600f60009054906101000a900460ff1681565b600880546112029061421c565b80601f016020809104026020016040519081016040528092919081815260200182805461122e9061421c565b801561127b5780601f106112505761010080835404028352916020019161127b565b820191906000526020600020905b81548152906001019060200180831161125e57829003601f168201915b505050505081565b6000806002600084815260200190815260200160002060009054906101000a900473ffffffffffffffffffffffffffffffffffffffff169050600073ffffffffffffffffffffffffffffffffffffffff168173ffffffffffffffffffffffffffffffffffffffff16141561132c576040517f08c379a000000000000000000000000000000000000000000000000000000000815260040161132390613d89565b60405180910390fd5b80915050919050565b60008073ffffffffffffffffffffffffffffffffffffffff168273ffffffffffffffffffffffffffffffffffffffff1614156113a6576040517f08c379a000000000000000000000000000000000000000000000000000000000815260040161139d90613d69565b60405180910390fd5b600360008373ffffffffffffffffffffffffffffffffffffffff1673ffffffffffffffffffffffffffffffffffffffff168152602001908152602001600020549050919050565b6113f56121dd565b73ffffffffffffffffffffffffffffffffffffffff1661141361150b565b73ffffffffffffffffffffffffffffffffffffffff1614611469576040517f08c379a000000000000000000000000000000000000000000000000000000000815260040161146090613e09565b60405180910390fd5b61147360006125d8565b565b61147d6121dd565b73ffffffffffffffffffffffffffffffffffffffff1661149b61150b565b73ffffffffffffffffffffffffffffffffffffffff16146114f1576040517f08c379a00000000000000000000000000000000000000000000000000000000081526004016114e890613e09565b60405180910390fd5b8060089080519060200190611507929190612f7e565b5050565b6000600660009054906101000a900473ffffffffffffffffffffffffffffffffffffffff16905090565b600d5481565b60606001805461154a9061421c565b80601f01602080910402602001604051908101604052809291908181526020018280546115769061421c565b80156115c35780601f10611598576101008083540402835291602001916115c3565b820191906000526020600020905b8154815290600101906020018083116115a657829003601f168201915b5050505050905090565b806000811180156115e05750600d548111155b61161f576040517f08c379a000000000000000000000000000000000000000000000000000000000815260040161161690613c89565b60405180910390fd5b600c548161162d600761269e565b6116379190614047565b1115611678576040517f08c379a000000000000000000000000000000000000000000000000000000000815260040161166f90613ea9565b60405180910390fd5b600f60009054906101000a900460ff16156116c8576040517f08c379a00000000000000000000000000000000000000000000000000000000081526004016116bf90613e29565b60405180910390fd5b81600b546116d691906140ce565b341015611718576040517f08c379a000000000000000000000000000000000000000000000000000000000815260040161170f90613ee9565b60405180910390fd5b5050565b61172e6117276121dd565b83836126ac565b5050565b600a805461173f9061421c565b80601f016020809104026020016040519081016040528092919081815260200182805461176b9061421c565b80156117b85780601f1061178d576101008083540402835291602001916117b8565b820191906000526020600020905b81548152906001019060200180831161179b57829003601f168201915b505050505081565b8282600e54611837838380806020026020016040519081016040528093929190818152602001838360200280828437600081840152601f19601f82011690508083019250505050505050823360405160200161181c9190613abb565b60405160208183030381529060405280519060200120612819565b611876576040517f08c379a000000000000000000000000000000000000000000000000000000000815260040161186d90613d09565b60405180910390fd5b600f60019054906101000a900460ff16156118c6576040517f08c379a00000000000000000000000000000000000000000000000000000000081526004016118bd90613da9565b60405180910390fd5b601060003373ffffffffffffffffffffffffffffffffffffffff1673ffffffffffffffffffffffffffffffffffffffff16815260200190815260200160002060009054906101000a900460ff1615611953576040517f08c379a000000000000000000000000000000000000000000000000000000000815260040161194a90613d29565b60405180910390fd5b83600b5461196191906140ce565b3410156119a3576040517f08c379a000000000000000000000000000000000000000000000000000000000815260040161199a90613ee9565b60405180910390fd5b6119ad3385612830565b6001601060003373ffffffffffffffffffffffffffffffffffffffff1673ffffffffffffffffffffffffffffffffffffffff16815260200190815260200160002060006101000a81548160ff021916908315150217905550505050505050565b600e5481565b611a1b6121dd565b73ffffffffffffffffffffffffffffffffffffffff16611a3961150b565b73ffffffffffffffffffffffffffffffffffffffff1614611a8f576040517f08c379a0000000000000000000000000000000000000000000000000000000008152600401611a8690613e09565b60405180910390fd5b80600d8190555050565b611aaa611aa46121dd565b8361229e565b611ae9576040517f08c379a0000000000000000000000000000000000000000000000000000000008152600401611ae090613ec9565b60405180910390fd5b611af584848484612870565b50505050565b611b036121dd565b73ffffffffffffffffffffffffffffffffffffffff16611b2161150b565b73ffffffffffffffffffffffffffffffffffffffff1614611b77576040517f08c379a0000000000000000000000000000000000000000000000000000000008152600401611b6e90613e09565b60405180910390fd5b80600e8190555050565b611b896121dd565b73ffffffffffffffffffffffffffffffffffffffff16611ba761150b565b73ffffffffffffffffffffffffffffffffffffffff1614611bfd576040517f08c379a0000000000000000000000000000000000000000000000000000000008152600401611bf490613e09565b60405180910390fd5b80600f60016101000a81548160ff02191690831515021790555050565b6060611c2582612171565b611c64576040517f08c379a0000000000000000000000000000000000000000000000000000000008152600401611c5b90613e69565b60405180910390fd5b60001515600f60029054906101000a900460ff1615151415611d1257600a8054611c8d9061421c565b80601f0160208091040260200160405190810160405280929190818152602001828054611cb99061421c565b8015611d065780601f10611cdb57610100808354040283529160200191611d06565b820191906000526020600020905b815481529060010190602001808311611ce957829003601f168201915b50505050509050611d6e565b6000611d1c6128cc565b90506000815111611d3c5760405180602001604052806000815250611d6a565b80611d468461295e565b6009604051602001611d5a93929190613b02565b6040516020818303038152906040525b9150505b919050565b60106020528060005260406000206000915054906101000a900460ff1681565b600c5481565b611da16121dd565b73ffffffffffffffffffffffffffffffffffffffff16611dbf61150b565b73ffffffffffffffffffffffffffffffffffffffff1614611e15576040517f08c379a0000000000000000000000000000000000000000000000000000000008152600401611e0c90613e09565b60405180910390fd5b80600f60026101000a81548160ff02191690831515021790555050565b6000600560008473ffffffffffffffffffffffffffffffffffffffff1673ffffffffffffffffffffffffffffffffffffffff16815260200190815260200160002060008373ffffffffffffffffffffffffffffffffffffffff1673ffffffffffffffffffffffffffffffffffffffff16815260200190815260200160002060009054906101000a900460ff16905092915050565b81600081118015611ed95750600d548111155b611f18576040517f08c379a0000000000000000000000000000000000000000000000000000000008152600401611f0f90613c89565b60405180910390fd5b600c5481611f26600761269e565b611f309190614047565b1115611f71576040517f08c379a0000000000000000000000000000000000000000000000000000000008152600401611f6890613ea9565b60405180910390fd5b611f796121dd565b73ffffffffffffffffffffffffffffffffffffffff16611f9761150b565b73ffffffffffffffffffffffffffffffffffffffff1614611fed576040517f08c379a0000000000000000000000000000000000000000000000000000000008152600401611fe490613e09565b60405180910390fd5b611ff78284612830565b505050565b6120046121dd565b73ffffffffffffffffffffffffffffffffffffffff1661202261150b565b73ffffffffffffffffffffffffffffffffffffffff1614612078576040517f08c379a000000000000000000000000000000000000000000000000000000000815260040161206f90613e09565b60405180910390fd5b600073ffffffffffffffffffffffffffffffffffffffff168173ffffffffffffffffffffffffffffffffffffffff1614156120e8576040517f08c379a00000000000000000000000000000000000000000000000000000000081526004016120df90613c49565b60405180910390fd5b6120f1816125d8565b50565b600f60019054906101000a900460ff1681565b60007f01ffc9a7000000000000000000000000000000000000000000000000000000007bffffffffffffffffffffffffffffffffffffffffffffffffffffffff1916827bffffffffffffffffffffffffffffffffffffffffffffffffffffffff1916149050919050565b60008073ffffffffffffffffffffffffffffffffffffffff166002600084815260200190815260200160002060009054906101000a900473ffffffffffffffffffffffffffffffffffffffff1673ffffffffffffffffffffffffffffffffffffffff1614159050919050565b600033905090565b816004600083815260200190815260200160002060006101000a81548173ffffffffffffffffffffffffffffffffffffffff021916908373ffffffffffffffffffffffffffffffffffffffff160217905550808273ffffffffffffffffffffffffffffffffffffffff1661225883611283565b73ffffffffffffffffffffffffffffffffffffffff167f8c5be1e5ebec7d5bd14f71427d1e84f3dd0314c0f7b2291e5b200ac8c7c3b92560405160405180910390a45050565b60006122a982612171565b6122e8576040517f08c379a00000000000000000000000000000000000000000000000000000000081526004016122df90613ce9565b60405180910390fd5b60006122f383611283565b90508073ffffffffffffffffffffffffffffffffffffffff168473ffffffffffffffffffffffffffffffffffffffff16148061236257508373ffffffffffffffffffffffffffffffffffffffff1661234a84610acc565b73ffffffffffffffffffffffffffffffffffffffff16145b8061237357506123728185611e32565b5b91505092915050565b8273ffffffffffffffffffffffffffffffffffffffff1661239c82611283565b73ffffffffffffffffffffffffffffffffffffffff16146123f2576040517f08c379a00000000000000000000000000000000000000000000000000000000081526004016123e990613e49565b60405180910390fd5b600073ffffffffffffffffffffffffffffffffffffffff168273ffffffffffffffffffffffffffffffffffffffff161415612462576040517f08c379a000000000000000000000000000000000000000000000000000000000815260040161245990613ca9565b60405180910390fd5b61246d838383612abf565b6124786000826121e5565b6001600360008573ffffffffffffffffffffffffffffffffffffffff1673ffffffffffffffffffffffffffffffffffffffff16815260200190815260200160002060008282546124c89190614128565b925050819055506001600360008473ffffffffffffffffffffffffffffffffffffffff1673ffffffffffffffffffffffffffffffffffffffff168152602001908152602001600020600082825461251f9190614047565b92505081905550816002600083815260200190815260200160002060006101000a81548173ffffffffffffffffffffffffffffffffffffffff021916908373ffffffffffffffffffffffffffffffffffffffff160217905550808273ffffffffffffffffffffffffffffffffffffffff168473ffffffffffffffffffffffffffffffffffffffff167fddf252ad1be2c89b69c2b068fc378daa952ba7f163c4a11628f55a4df523b3ef60405160405180910390a4505050565b6000600660009054906101000a900473ffffffffffffffffffffffffffffffffffffffff16905081600660006101000a81548173ffffffffffffffffffffffffffffffffffffffff021916908373ffffffffffffffffffffffffffffffffffffffff1602179055508173ffffffffffffffffffffffffffffffffffffffff168173ffffffffffffffffffffffffffffffffffffffff167f8be0079c531659141344cd1fd0a4f28419497f9722a3daafe3b4186f6b6457e060405160405180910390a35050565b600081600001549050919050565b8173ffffffffffffffffffffffffffffffffffffffff168373ffffffffffffffffffffffffffffffffffffffff16141561271b576040517f08c379a000000000000000000000000000000000000000000000000000000000815260040161271290613cc9565b60405180910390fd5b80600560008573ffffffffffffffffffffffffffffffffffffffff1673ffffffffffffffffffffffffffffffffffffffff16815260200190815260200160002060008473ffffffffffffffffffffffffffffffffffffffff1673ffffffffffffffffffffffffffffffffffffffff16815260200190815260200160002060006101000a81548160ff0219169083151502179055508173ffffffffffffffffffffffffffffffffffffffff168373ffffffffffffffffffffffffffffffffffffffff167f17307eab39ab6107e8899845ad3d59bd9653f200f220920489ca2b5937696c318360405161280c9190613bd1565b60405180910390a3505050565b6000826128268584612ac4565b1490509392505050565b60005b8181101561286b576128456007612b77565b61285883612853600761269e565b612b8d565b80806128639061427f565b915050612833565b505050565b61287b84848461237c565b61288784848484612bab565b6128c6576040517f08c379a00000000000000000000000000000000000000000000000000000000081526004016128bd90613c29565b60405180910390fd5b50505050565b6060600880546128db9061421c565b80601f01602080910402602001604051908101604052809291908181526020018280546129079061421c565b80156129545780601f1061292957610100808354040283529160200191612954565b820191906000526020600020905b81548152906001019060200180831161293757829003601f168201915b5050505050905090565b606060008214156129a6576040518060400160405280600181526020017f30000000000000000000000000000000000000000000000000000000000000008152509050612aba565b600082905060005b600082146129d85780806129c19061427f565b915050600a826129d1919061409d565b91506129ae565b60008167ffffffffffffffff8111156129f4576129f36143e3565b5b6040519080825280601f01601f191660200182016040528015612a265781602001600182028036833780820191505090505b5090505b60008514612ab357600182612a3f9190614128565b9150600a85612a4e91906142f6565b6030612a5a9190614047565b60f81b818381518110612a7057612a6f6143b4565b5b60200101907effffffffffffffffffffffffffffffffffffffffffffffffffffffffffffff1916908160001a905350600a85612aac919061409d565b9450612a2a565b8093505050505b919050565b505050565b60008082905060005b8451811015612b6c576000858281518110612aeb57612aea6143b4565b5b60200260200101519050808311612b2c578281604051602001612b0f929190613ad6565b604051602081830303815290604052805190602001209250612b58565b8083604051602001612b3f929190613ad6565b6040516020818303038152906040528051906020012092505b508080612b649061427f565b915050612acd565b508091505092915050565b6001816000016000828254019250508190555050565b612ba7828260405180602001604052806000815250612d42565b5050565b6000612bcc8473ffffffffffffffffffffffffffffffffffffffff16612d9d565b15612d35578373ffffffffffffffffffffffffffffffffffffffff1663150b7a02612bf56121dd565b8786866040518563ffffffff1660e01b8152600401612c179493929190613b63565b602060405180830381600087803b158015612c3157600080fd5b505af1925050508015612c6257506040513d601f19601f82011682018060405250810190612c5f919061347f565b60015b612ce5573d8060008114612c92576040519150601f19603f3d011682016040523d82523d6000602084013e612c97565b606091505b50600081511415612cdd576040517f08c379a0000000000000000000000000000000000000000000000000000000008152600401612cd490613c29565b60405180910390fd5b805181602001fd5b63150b7a0260e01b7bffffffffffffffffffffffffffffffffffffffffffffffffffffffff1916817bffffffffffffffffffffffffffffffffffffffffffffffffffffffff191614915050612d3a565b600190505b949350505050565b612d4c8383612db0565b612d596000848484612bab565b612d98576040517f08c379a0000000000000000000000000000000000000000000000000000000008152600401612d8f90613c29565b60405180910390fd5b505050565b600080823b905060008111915050919050565b600073ffffffffffffffffffffffffffffffffffffffff168273ffffffffffffffffffffffffffffffffffffffff161415612e20576040517f08c379a0000000000000000000000000000000000000000000000000000000008152600401612e1790613dc9565b60405180910390fd5b612e2981612171565b15612e69576040517f08c379a0000000000000000000000000000000000000000000000000000000008152600401612e6090613c69565b60405180910390fd5b612e7560008383612abf565b6001600360008473ffffffffffffffffffffffffffffffffffffffff1673ffffffffffffffffffffffffffffffffffffffff1681526020019081526020016000206000828254612ec59190614047565b92505081905550816002600083815260200190815260200160002060006101000a81548173ffffffffffffffffffffffffffffffffffffffff021916908373ffffffffffffffffffffffffffffffffffffffff160217905550808273ffffffffffffffffffffffffffffffffffffffff16600073ffffffffffffffffffffffffffffffffffffffff167fddf252ad1be2c89b69c2b068fc378daa952ba7f163c4a11628f55a4df523b3ef60405160405180910390a45050565b828054612f8a9061421c565b90600052602060002090601f016020900481019282612fac5760008555612ff3565b82601f10612fc557805160ff1916838001178555612ff3565b82800160010185558215612ff3579182015b82811115612ff2578251825591602001919060010190612fd7565b5b5090506130009190613004565b5090565b5b8082111561301d576000816000905550600101613005565b5090565b600061303461302f84613f49565b613f24565b9050828152602081018484840111156130505761304f614421565b5b61305b8482856141da565b509392505050565b600061307661307184613f7a565b613f24565b90508281526020810184848401111561309257613091614421565b5b61309d8482856141da565b509392505050565b6000813590506130b4816149ee565b92915050565b60008083601f8401126130d0576130cf614417565b5b8235905067ffffffffffffffff8111156130ed576130ec614412565b5b6020830191508360208202830111156131095761310861441c565b5b9250929050565b60008135905061311f81614a05565b92915050565b60008135905061313481614a1c565b92915050565b60008135905061314981614a33565b92915050565b60008151905061315e81614a33565b92915050565b600082601f83011261317957613178614417565b5b8135613189848260208601613021565b91505092915050565b600082601f8301126131a7576131a6614417565b5b81356131b7848260208601613063565b91505092915050565b6000813590506131cf81614a4a565b92915050565b6000602082840312156131eb576131ea61442b565b5b60006131f9848285016130a5565b91505092915050565b600080604083850312156132195761321861442b565b5b6000613227858286016130a5565b9250506020613238858286016130a5565b9150509250929050565b60008060006060848603121561325b5761325a61442b565b5b6000613269868287016130a5565b935050602061327a868287016130a5565b925050604061328b868287016131c0565b9150509250925092565b600080600080608085870312156132af576132ae61442b565b5b60006132bd878288016130a5565b94505060206132ce878288016130a5565b93505060406132df878288016131c0565b925050606085013567ffffffffffffffff811115613300576132ff614426565b5b61330c87828801613164565b91505092959194509250565b6000806040838503121561332f5761332e61442b565b5b600061333d858286016130a5565b925050602061334e85828601613110565b9150509250929050565b6000806040838503121561336f5761336e61442b565b5b600061337d858286016130a5565b925050602061338e858286016131c0565b9150509250929050565b6000806000604084860312156133b1576133b061442b565b5b600084013567ffffffffffffffff8111156133cf576133ce614426565b5b6133db868287016130ba565b935093505060206133ee868287016131c0565b9150509250925092565b60006020828403121561340e5761340d61442b565b5b600061341c84828501613110565b91505092915050565b60006020828403121561343b5761343a61442b565b5b600061344984828501613125565b91505092915050565b6000602082840312156134685761346761442b565b5b60006134768482850161313a565b91505092915050565b6000602082840312156134955761349461442b565b5b60006134a38482850161314f565b91505092915050565b6000602082840312156134c2576134c161442b565b5b600082013567ffffffffffffffff8111156134e0576134df614426565b5b6134ec84828501613192565b91505092915050565b60006020828403121561350b5761350a61442b565b5b6000613519848285016131c0565b91505092915050565b600080604083850312156135395761353861442b565b5b6000613547858286016131c0565b9250506020613558858286016130a5565b9150509250929050565b600061356e8383613a9d565b60208301905092915050565b6135838161415c565b82525050565b61359a6135958261415c565b6142c8565b82525050565b60006135ab82613fd0565b6135b58185613ffe565b93506135c083613fab565b8060005b838110156135f15781516135d88882613562565b97506135e383613ff1565b9250506001810190506135c4565b5085935050505092915050565b6136078161416e565b82525050565b6136168161417a565b82525050565b61362d6136288261417a565b6142da565b82525050565b600061363e82613fdb565b613648818561400f565b93506136588185602086016141e9565b61366181614430565b840191505092915050565b600061367782613fe6565b613681818561402b565b93506136918185602086016141e9565b61369a81614430565b840191505092915050565b60006136b082613fe6565b6136ba818561403c565b93506136ca8185602086016141e9565b80840191505092915050565b600081546136e38161421c565b6136ed818661403c565b9450600182166000811461370857600181146137195761374c565b60ff1983168652818601935061374c565b61372285613fbb565b60005b8381101561374457815481890152600182019150602081019050613725565b838801955050505b50505092915050565b600061376260328361402b565b915061376d8261444e565b604082019050919050565b600061378560268361402b565b91506137908261449d565b604082019050919050565b60006137a8601c8361402b565b91506137b3826144ec565b602082019050919050565b60006137cb60148361402b565b91506137d682614515565b602082019050919050565b60006137ee60248361402b565b91506137f98261453e565b604082019050919050565b600061381160198361402b565b915061381c8261458d565b602082019050919050565b6000613834602c8361402b565b915061383f826145b6565b604082019050919050565b6000613857601e8361402b565b915061386282614605565b602082019050919050565b600061387a60258361402b565b91506138858261462e565b604082019050919050565b600061389d60388361402b565b91506138a88261467d565b604082019050919050565b60006138c0602a8361402b565b91506138cb826146cc565b604082019050919050565b60006138e360298361402b565b91506138ee8261471b565b604082019050919050565b600061390660178361402b565b91506139118261476a565b602082019050919050565b600061392960208361402b565b915061393482614793565b602082019050919050565b600061394c602c8361402b565b9150613957826147bc565b604082019050919050565b600061396f60208361402b565b915061397a8261480b565b602082019050919050565b600061399260178361402b565b915061399d82614834565b602082019050919050565b60006139b560298361402b565b91506139c08261485d565b604082019050919050565b60006139d8602f8361402b565b91506139e3826148ac565b604082019050919050565b60006139fb60218361402b565b9150613a06826148fb565b604082019050919050565b6000613a1e600083614020565b9150613a298261494a565b600082019050919050565b6000613a4160148361402b565b9150613a4c8261494d565b602082019050919050565b6000613a6460318361402b565b9150613a6f82614976565b604082019050919050565b6000613a8760138361402b565b9150613a92826149c5565b602082019050919050565b613aa6816141d0565b82525050565b613ab5816141d0565b82525050565b6000613ac78284613589565b60148201915081905092915050565b6000613ae2828561361c565b602082019150613af2828461361c565b6020820191508190509392505050565b6000613b0e82866136a5565b9150613b1a82856136a5565b9150613b2682846136d6565b9150819050949350505050565b6000613b3e82613a11565b9150819050919050565b6000602082019050613b5d600083018461357a565b92915050565b6000608082019050613b78600083018761357a565b613b85602083018661357a565b613b926040830185613aac565b8181036060830152613ba48184613633565b905095945050505050565b60006020820190508181036000830152613bc981846135a0565b905092915050565b6000602082019050613be660008301846135fe565b92915050565b6000602082019050613c01600083018461360d565b92915050565b60006020820190508181036000830152613c21818461366c565b905092915050565b60006020820190508181036000830152613c4281613755565b9050919050565b60006020820190508181036000830152613c6281613778565b9050919050565b60006020820190508181036000830152613c828161379b565b9050919050565b60006020820190508181036000830152613ca2816137be565b9050919050565b60006020820190508181036000830152613cc2816137e1565b9050919050565b60006020820190508181036000830152613ce281613804565b9050919050565b60006020820190508181036000830152613d0281613827565b9050919050565b60006020820190508181036000830152613d228161384a565b9050919050565b60006020820190508181036000830152613d428161386d565b9050919050565b60006020820190508181036000830152613d6281613890565b9050919050565b60006020820190508181036000830152613d82816138b3565b9050919050565b60006020820190508181036000830152613da2816138d6565b9050919050565b60006020820190508181036000830152613dc2816138f9565b9050919050565b60006020820190508181036000830152613de28161391c565b9050919050565b60006020820190508181036000830152613e028161393f565b9050919050565b60006020820190508181036000830152613e2281613962565b9050919050565b60006020820190508181036000830152613e4281613985565b9050919050565b60006020820190508181036000830152613e62816139a8565b9050919050565b60006020820190508181036000830152613e82816139cb565b9050919050565b60006020820190508181036000830152613ea2816139ee565b9050919050565b60006020820190508181036000830152613ec281613a34565b9050919050565b60006020820190508181036000830152613ee281613a57565b9050919050565b60006020820190508181036000830152613f0281613a7a565b9050919050565b6000602082019050613f1e6000830184613aac565b92915050565b6000613f2e613f3f565b9050613f3a828261424e565b919050565b6000604051905090565b600067ffffffffffffffff821115613f6457613f636143e3565b5b613f6d82614430565b9050602081019050919050565b600067ffffffffffffffff821115613f9557613f946143e3565b5b613f9e82614430565b9050602081019050919050565b6000819050602082019050919050565b60008190508160005260206000209050919050565b600081519050919050565b600081519050919050565b600081519050919050565b6000602082019050919050565b600082825260208201905092915050565b600082825260208201905092915050565b600081905092915050565b600082825260208201905092915050565b600081905092915050565b6000614052826141d0565b915061405d836141d0565b9250827fffffffffffffffffffffffffffffffffffffffffffffffffffffffffffffffff0382111561409257614091614327565b5b828201905092915050565b60006140a8826141d0565b91506140b3836141d0565b9250826140c3576140c2614356565b5b828204905092915050565b60006140d9826141d0565b91506140e4836141d0565b9250817fffffffffffffffffffffffffffffffffffffffffffffffffffffffffffffffff048311821515161561411d5761411c614327565b5b828202905092915050565b6000614133826141d0565b915061413e836141d0565b92508282101561415157614150614327565b5b828203905092915050565b6000614167826141b0565b9050919050565b60008115159050919050565b6000819050919050565b60007fffffffff0000000000000000000000000000000000000000000000000000000082169050919050565b600073ffffffffffffffffffffffffffffffffffffffff82169050919050565b6000819050919050565b82818337600083830152505050565b60005b838110156142075780820151818401526020810190506141ec565b83811115614216576000848401525b50505050565b6000600282049050600182168061423457607f821691505b6020821081141561424857614247614385565b5b50919050565b61425782614430565b810181811067ffffffffffffffff82111715614276576142756143e3565b5b80604052505050565b600061428a826141d0565b91507fffffffffffffffffffffffffffffffffffffffffffffffffffffffffffffffff8214156142bd576142bc614327565b5b600182019050919050565b60006142d3826142e4565b9050919050565b6000819050919050565b60006142ef82614441565b9050919050565b6000614301826141d0565b915061430c836141d0565b92508261431c5761431b614356565b5b828206905092915050565b7f4e487b7100000000000000000000000000000000000000000000000000000000600052601160045260246000fd5b7f4e487b7100000000000000000000000000000000000000000000000000000000600052601260045260246000fd5b7f4e487b7100000000000000000000000000000000000000000000000000000000600052602260045260246000fd5b7f4e487b7100000000000000000000000000000000000000000000000000000000600052603260045260246000fd5b7f4e487b7100000000000000000000000000000000000000000000000000000000600052604160045260246000fd5b600080fd5b600080fd5b600080fd5b600080fd5b600080fd5b600080fd5b6000601f19601f8301169050919050565b60008160601b9050919050565b7f4552433732313a207472616e7366657220746f206e6f6e20455243373231526560008201527f63656976657220696d706c656d656e7465720000000000000000000000000000602082015250565b7f4f776e61626c653a206e6577206f776e657220697320746865207a65726f206160008201527f6464726573730000000000000000000000000000000000000000000000000000602082015250565b7f4552433732313a20746f6b656e20616c7265616479206d696e74656400000000600082015250565b7f496e76616c6964206d696e7420616d6f756e7421000000000000000000000000600082015250565b7f4552433732313a207472616e7366657220746f20746865207a65726f2061646460008201527f7265737300000000000000000000000000000000000000000000000000000000602082015250565b7f4552433732313a20617070726f766520746f2063616c6c657200000000000000600082015250565b7f4552433732313a206f70657261746f7220717565727920666f72206e6f6e657860008201527f697374656e7420746f6b656e0000000000000000000000000000000000000000602082015250565b7f4164647265737320646f6573206e6f7420657869737420696e206c6973740000600082015250565b7f4e465420697320616c726561647920636c61696d65642062792074686973207760008201527f616c6c6574000000000000000000000000000000000000000000000000000000602082015250565b7f4552433732313a20617070726f76652063616c6c6572206973206e6f74206f7760008201527f6e6572206e6f7220617070726f76656420666f7220616c6c0000000000000000602082015250565b7f4552433732313a2062616c616e636520717565727920666f7220746865207a6560008201527f726f206164647265737300000000000000000000000000000000000000000000602082015250565b7f4552433732313a206f776e657220717565727920666f72206e6f6e657869737460008201527f656e7420746f6b656e0000000000000000000000000000000000000000000000602082015250565b7f4e6f2070726573616c6520617420746869732074696d65000000000000000000600082015250565b7f4552433732313a206d696e7420746f20746865207a65726f2061646472657373600082015250565b7f4552433732313a20617070726f76656420717565727920666f72206e6f6e657860008201527f697374656e7420746f6b656e0000000000000000000000000000000000000000602082015250565b7f4f776e61626c653a2063616c6c6572206973206e6f7420746865206f776e6572600082015250565b7f54686520636f6e74726163742069732070617573656421000000000000000000600082015250565b7f4552433732313a207472616e73666572206f6620746f6b656e2074686174206960008201527f73206e6f74206f776e0000000000000000000000000000000000000000000000602082015250565b7f4552433732314d657461646174613a2055524920717565727920666f72206e6f60008201527f6e6578697374656e7420746f6b656e0000000000000000000000000000000000602082015250565b7f4552433732313a20617070726f76616c20746f2063757272656e74206f776e6560008201527f7200000000000000000000000000000000000000000000000000000000000000602082015250565b50565b7f4d617820737570706c7920657863656564656421000000000000000000000000600082015250565b7f4552433732313a207472616e736665722063616c6c6572206973206e6f74206f60008201527f776e6572206e6f7220617070726f766564000000000000000000000000000000602082015250565b7f496e73756666696369656e742066756e64732100000000000000000000000000600082015250565b6149f78161415c565b8114614a0257600080fd5b50565b614a0e8161416e565b8114614a1957600080fd5b50565b614a258161417a565b8114614a3057600080fd5b50565b614a3c81614184565b8114614a4757600080fd5b50565b614a53816141d0565b8114614a5e57600080fd5b5056fea26469706673582212209d848c4e9e9ad1888b85bf143db9d9e8efca7b467d687a61b5d2a827e83b3b8064736f6c63430008070033697066733a2f2f516d563539374e52777172775772687579686a4d32546b43425677316f50777a766372415a6d4234537870626f542f68696464656e2e6a736f6e",
  "deployedBytecode": "",
  "linkReferences": {},
  "deployedLinkReferences": {}
}